:020000040800F2
:1000000008350020B5010008A50A000861090008AC
:10001000A10A0008E5090008F10C00080000000032
:100020000000000000000000000000001D010008AA
:10003000E909000800000000610100089D46000871
:10004000CF010008CF010008CF010008CF01000850
:10005000CF010008CF010008CF010008CF01000840
:10006000CF010008CF010008CF010008CF01000830
:10007000CF010008CF010008CF010008CF01000820
:10008000CF010008CF010008CF010008CF01000810
:10009000CF010008CF010008CF010008CF01000800
:1000A000CF010008CF010008CF010008CF010008F0
:1000B000150C0008CF010008CF010008CF0100088F
:1000C000CF010008CF010008CF010008CF010008D0
:1000D000CF010008310C0008910C0008CF01000886
:1000E000CF010008CF010008CF0100080000000088
:1000F0000000000000000000000000000000000000
:10010000CF010008DFF810D000F002FB00480047E4
:1001100023260008AFF3008008350020224B196821
:100120000868B0E8F00F80F30988BFF36F8F4FF0D5
:10013000000080F311884EF00D0E704700000000A3
:1001400006480068006880F3088862B661B6BFF3AD
:100150004F8FBFF36F8F00DF00BF00BF08ED00E0DF
:10016000EFF30980BFF36F8F0F4B1A6820E9F00F90
:10017000106008B54FF0BF0080F31188BFF34F8FB8
:10018000BFF36F8F04F040FA4FF0000080F3118846
:10019000BDE8084019680868B0E8F00F80F30988E6
:1001A000BFF36F8F704700BFFC000020EFF30580A6
:1001B000704700000648804706480047FEE7FEE714
:1001C000FEE7FEE7FEE7FEE7FEE7FEE7FEE7FEE707
:1001D000B10B00080501000800487047B04F000847
:1001E00040EA01039B0703D009E008C9121F08C0B9
:1001F000042AFAD203E011F8013B00F8013B521E39
:10020000F9D27047D2B201E000F8012B491EFBD2AF
:1002100070470022F6E710B513460A460446194611
:10022000FFF7F0FF204610BD30B505462A460B46C5
:1002300012F8010B13F8014B08B1A042F8D01CB121
:10024000002802D06D1CF1E7284630BD421C10F892
:10025000011B0029FBD1801A704710B5002200E075
:10026000521C835C8C5CA34201D1002BF8D1D8B224
:10027000E1B2401A10BD034611F8012B00F8012B22
:10028000002AF9D11846704770B5064600F042FDC5
:10029000046805460A220021304600F049F82C6027
:1002A00070BD30B50B46014600202022012409E034
:1002B00021FA02F59D4205D303FA02F5491B04FA1F
:1002C00002F52844151EA2F10102F1DC30BD2DE932
:1002D000F05F0546002092469B46884606468146CA
:1002E00040241BE0284641464746224600F031FAAA
:1002F00053465A46C01A914110D311461846224619
:1003000000F018FA2D1A67EB01084F46224601202B
:10031000002100F00FFA17EB00094E41201EA4F156
:100320000104DFDC484631462A464346BDE8F09FDB
:100330002DE9F04791460F4680460446002614F802
:10034000015B2DB1FFF748FF0068405DC007F6D1A3
:100350002B2D02D02D2D18D0641E4A46394620463A
:1003600000F019FA27B13968A14201D1C7F800801D
:1003700071054FF002040BD54042002803DD00F068
:10038000C9FC0460A007BDE8F08746F48066E4E796
:100390000028F8DA00F0BEFC04606FF00040F2E7DD
:1003A0002DE9FE4F804681EA0300C00F0C46009005
:1003B00021F0004123F00045B8EB0200A94105D22D
:1003C0004046214690461C460B46024623F000401C
:1003D000104347D0270DC7F30A00C3F30A51029018
:1003E000401A019040286BDAC3F3130040F4801BDD
:1003F0000098924620B10023D2EB030A63EB0B0B6B
:1004000001985946C0F14002504600F093F9064663
:100410000D4650465946019A00F0ABF910EB080022
:100420006141002487EA115284EAE7731A4340D0FD
:10043000009A62B3019A012A4FEA075215DC001BA9
:1004400061EB02014FF0004202EA0752CDE900429F
:10045000001C41F5801132462B4600F0FAF903B03A
:10046000BDE8F08F40462146F9E7001B61EB020131
:10047000001C41F5801300185B412018A2F50017FD
:1004800047EB030140EAD570B6196D4111E06D08E4
:100490004FEA360645EAC0754FEA0752001B61EB8A
:1004A0000201001C41F5801149084FEA3000001993
:1004B000514132462B4603B0BDE8F04F00F0BAB9C7
:1004C0000098012240000023D0EB020263EBE073AE
:1004D000009821464FEAE074B8EB000061EB04019C
:1004E000E9E783F000435BE781F0004158E72DE93D
:1004F000FE4F81EA030404F0004421F0004100941F
:100500004FF0000B23F0004350EA01045ED052EAA2
:1005100003045BD0C3F30A54C1F30A552C44A4F27C
:10052000F3340194A0FB0254C1F3130141F4801190
:10053000C3F3130343F4801301FB024400FB034E97
:10054000840A970A44EA815447EA8357A4FB076860
:1005500002958D0A05FB07854FEA932C04FB0C548A
:100560002705029D4FEA065847EA1637B5EB0805FE
:100570006EEB070C870E920E47EA811742EA831250
:10058000A7FB0201B6EB0B0164EB00042B0D43EA61
:100590000C335E1844EB1C50DA465146E7FB02016F
:1005A000C5F313044FEA0B3343EA14534FEA043202
:1005B000019C43EA0603A4F10C040294009CCDE9DB
:1005C00000B400F046F903B0BDE8F08F002001460A
:1005D000F9E72DE9F04D81EA030404F0004B21F026
:1005E000004514464FF0000A23F0004150EA05028E
:1005F00020D054EA01021DD0C5F30A570246C5F3C4
:100600001303C1F31300C1F30A5640F4801543F4F9
:100610008013A7EB0608101BD64608F2FD3873EBD3
:10062000050002D308F1010801E092185B41B8F11E
:10063000000F03DA00200146BDE8F08D00204FF4E2
:100640008011064684460EE0171B73EB050705D3A1
:10065000121B63EB050306434CEA010C49084FEA01
:10066000300092185B4150EA0107EDD152EA0300D5
:1006700012D082EA040083EA0501084305D0101B6A
:10068000AB4106D20122002306E000224FF00043D6
:1006900002E06FF0010253101AEB06004CEB085118
:1006A00010EB0A0041EB0B01BDE8F04D00F0C2B8C1
:1006B000C1F30A52C1F3130140F2FF3341F4801138
:1006C0009A4202DA00200146704740F233439A42D0
:1006D000A2F2334202DC524200F03BB800F02AB8EA
:1006E00030B5041E71F1000404DB4FF000444042B9
:1006F00064EB0101141E73F1000405DB1C464FF08E
:100700000043524263EB0403994208BF904230BD5C
:10071000064C074D06E0E06840F0010394E807004E
:1007200098471034AC42F6D3FFF7F0FC04510008B0
:1007300024510008202A04DB203A00FA02F10020AC
:1007400070479140C2F1200320FA03F3194390400F
:100750007047202A04DB203A21FA02F0002170477A
:1007600021FA02F3D040C2F1200291400843194619
:100770007047202A06DBCB17203A41FA02F043EA01
:10078000E07306E041FA02F3D040C2F1200291404A
:100790000843194670472DE9F05F8246007800272C
:1007A00015468B460AF10104B946302801D09DB1A7
:1007B00013E014F8010B0127782803D0582801D042
:1007C00045B10AE00DB1102D07D10027102514F80E
:1007D000010B02E0082500E00A250026B0460EE0E5
:1007E00005FB080005FB06F1012701EB10461FFA87
:1007F00080F8B6F5803F00D3B94614F8010B2946BE
:1008000000F075F80028EBDABBF1000F05D00FB14E
:10081000641E00E05446CBF80040B9F1000F06D04A
:1008200000F078FA02210160C81EBDE8F09F48EA96
:100830000640FAE710B5141E73F1000408DA401CF4
:1008400041F1000192185B411A4301D120F00100EF
:1008500010BD2DE9F04D92469B4611B1B1FA81F2DF
:1008600002E0B0FA80F220329046FFF763FF0446C0
:100870000F4640EA0A0041EA0B0153465A46084334
:1008800013D0114653EA010019D0C8F14002504676
:10089000FFF75FFF05460E46504659464246FFF7B2
:1008A00049FF084305D0012004E020463946BDE851
:1008B000F08D0020054346EAE0762C4337430A9842
:1008C0006305E40AA0EB08000022FD0A44EA47544D
:1008D0000A3002D500200146E9E7010510196941F7
:1008E000DDE9084500196941BDE8F04DA2E73A2865
:1008F00000D2303820F02002412A01D3A2F1370083
:10090000884201D34FF0FF30704770B58C1810F853
:10091000015B15F0070301D110F8013B2A1106D144
:1009200010F8012B03E010F8016B01F8016B5B1E5E
:10093000F9D12B0705D40023521E0DD401F8013B39
:10094000FAE710F8013BCB1A921C03E013F8015BA5
:1009500001F8015B521EF9D5A142D8D3002070BD29
:100960001EF0040F0CBFEFF30880EFF3098000F0D6
:100970003DB800001CB50025002002210346CA0135
:10098000CDE9001011A1134804F06AF800200221FB
:1009900003468022CDE900100FA1114804F060F851
:1009A00012E04FF47A7003F0B9FD00F049FF0446FD
:1009B0004FF47A70B4FBF0F0A84205D04FF47A708F
:1009C000B4FBF0F500F08CFFEBE70000636F6D6D9A
:1009D00000000000D10A000864656275670000002D
:1009E000350B000800BFFEE7704700002949096881
:1009F00001F0004149B12749096841F00041254A09
:100A000011608169891C8161704722490839096830
:100A1000214A11621F49091F097882F824101D49D3
:100A2000C91E097891621B490C310968D1621949C4
:100A3000891E098811861749096851631549091DDE
:100A400009689163134910310968D1630021134A81
:100A5000116000BF114909680129FBD00E4A0168E5
:100A600011604168516081689160C168D16001691D
:100A700011614169516181699161C169D16100214F
:100A8000064A116000BF054909680029FBD000BF74
:100A9000BAE700002CED00E0C4140020940200200E
:100AA00000BFFEE77047000010B5002807DA0A070C
:100AB000140E054A00F00F031B1FD45403E00A076D
:100AC000130E024A135410BD18ED00E000E400E0DC
:100AD00008B50020009002F069FD144802F0FAFD0C
:100AE00001F01CFB20E01249886E4FF4967103F070
:100AF00011FF012818D10E48203002F05AFC60B9CD
:100B000003E09DF8000002F0F9FC01226946084864
:100B1000203002F056FC0028F3D1054900231A4684
:100B2000886E194603F02EFEDDE70000213600082E
:100B30000C03002008B5002000901A4800F04EFE7B
:100B4000194800F041FD01F0FDFA29E01749886CD1
:100B50004FF4967103F0DEFE012821D1134802F014
:100B600028FCB0B90EE00F499DF8000000F0C6FD6A
:100B70000D2807D10B4908310B4802F01FFF094827
:100B800000F0B2FD01226946084802F01AFC002874
:100B9000E9D1064900231A46886C194603F0F2FD94
:100BA000D4E70000401400205C010020C0020020B7
:100BB00010B51448006840F001001249086008466A
:100BC0004068114908400F494860084600680F49CD
:100BD00008400C4908600846006820F4802008603E
:100BE000084640680A4908400649486008460068C7
:100BF00006490840034908604FF41F00886003F06D
:100C000001F810BD001002400C00FFE8FFFFF6FEE7
:100C1000FFFF00F710B50121880703F075FA28B12E
:100C20000121880703F06CFA01F03AF810BD0000CA
:100C300010B500201149086011490868052103F02A
:100C400058FB78B10E49086803F0FCFA0D490870AA
:100C500001220D4802F0FFFB0B492039886E07493D
:100C600003F01CFE06490868072103F042FB20B18F
:100C700003490868054903F068FB10BDF000002037
:100C8000C8000020EC0000202C0300200703070010
:100C900010B500201149086011490868052103F0CA
:100CA00028FB70B10E49086803F0CCFA0D490870B2
:100CB00001220D4802F0CFFB0B49886C074903F075
:100CC000EDFD07490868072103F013FB20B1044933
:100CD0000868064903F039FB10BD00003000002011
:100CE000080000202C000020C0020020070307009D
:100CF00000BFFEE70FB4054B10B503A9044A0298E4
:100D000000F0DEF810BC5DF814FB0000352300088D
:100D100098020020004870479C02002002E008C8AA
:100D2000121F08C1002AFAD170477047002001E065
:100D300001C1121F002AFBD1704700002DE9FF5F9F
:100D400082B00021DDE90430020DDDF840B003433C
:100D500018D044F61050A2F2FF32424315141198F5
:100D600001281FD0A5EB0B00401C5FEA000A4FF0E2
:100D700000064E4FDFF83891B046504615D5CAF1FF
:100D8000000413E0119801244AA3012801D16FEA5D
:100D90000B010298119AC0E90031C0E9024206B085
:100DA000BDE8F09FCBF10000DFE704460021404A98
:100DB000491842EB0450CDE9001012E0E00707D0DB
:100DC00032463B4640464946FFF791FB80468946FE
:100DD00032463B4610461946FFF789FB06460F464A
:100DE0006410002CEAD1DDE90401DDE90023BAF149
:100DF000000F06DAFFF77BFB42464B46FFF777FB17
:100E000005E0FFF7E6FB42464B46FFF7E2FB0446F0
:100E10000E460022284BFFF763FC03D84FF0FF304B
:100E2000014607E00022254B20463146FFF7B8FA7D
:100E3000FFF73EFC102409E0002C0ADB0A22002305
:100E4000FFF745FA039B30321A55641E50EA01023F
:100E5000F2D1641C039AC4F111031444119A012ABB
:100E600003D0012208430DD10AE0084304D000203A
:100E70004FF0110B119072E7A3EB0B056D1E0DE007
:100E80005B4504DD4FF0000205F1010504E003DAE3
:100E90004FF00002A5F10105002AECD0029811994B
:100EA000C0E90231C0E9004579E7000000001440C4
:100EB0000000F03F300000000000F0430000E03F81
:100EC0002DE9FF4F95B09A46884606460025EEE18B
:100ED000252877D100242746F94A0121039400E010
:100EE000044316F8013F203B01FA03F01042F7D10A
:100EF00030782A2811D06FF02F033078A0F130021B
:100F0000092A16D8039A44F0020402EB820203EB8A
:100F100042021044761C0390EFE758F8042B03922A
:100F2000002A03DA504244F40054039044F00204CF
:100F3000761C30782E2816D116F8010F44F00404E0
:100F40002A280DD06FF02F023078A0F13003092B42
:100F500009D807EB870302EB4303C718761CF3E7B6
:100F600058F8047B761C30786C280FD006DC4C28AF
:100F700017D068280DD06A2814D104E0742810D046
:100F80007A280FD10DE044F400140AE044F48014F0
:100F900001E044F440147278824202D104F58014D6
:100FA000761C761C307866280BD013DC582877D056
:100FB00009DC002875D04528F6D04628F4D047280B
:100FC0001AD193E118E0632835D0642879D06528D8
:100FD00012D18BE1702873D008DC6728F1D0692822
:100FE0006FD06E280DD06F2806D1ACE073282CD0BE
:100FF000752874D0782853D05246179990476D1CA5
:1010000054E1C4F30250022809D003280DD0D8F8C7
:10101000001004280DD00D6008F1040846E1D8F84E
:101020000010EA17C1E90052F6E7D8F800100D8069
:10103000F2E70D70F0E718F8041B8DF8001000209F
:101040008DF80100EB46012003E058F804BB4FF097
:10105000FF3061074FF0000102D40DE009F10101FA
:101060008946B9420FDA8145F8DB1BF809100029DF
:10107000F4D108E009F1010189468142FADB1BF84D
:1010800009100029F6D103985346A0EB0907214621
:101090003846179A00F080FA284400EB090507E06B
:1010A00044E008E10DE01BF8010B52461799904708
:1010B000B9F10109F7D2534621463846179AF2E0B2
:1010C00039E00A21C4F302524FF0000B0091022ACA
:1010D00006D058F8040BC117032A09D00AE023E010
:1010E00008F1070020F00702F2E80201904605E04F
:1010F00000B2C117042A01D140B2C117002906DA93
:101100000A460021404261EB02012D2202E0220545
:1011100004D52B228DF80420012203E0E20701D040
:101120002022F7E7914657E00A2100E010214FF016
:10113000000B00910BE010214FF0000B44F0040471
:101140000827009103E008204FF0000B0090C4F343
:101150000252022A05D058F8040B0021032A08D0B5
:1011600008E008F1070020F00702F2E802019046CB
:1011700003E080B2042A00D1C0B24FF00009220778
:101180002AD53278702A07D0DDF800C08CF0100C18
:101190005CEA0B0C05D00EE040228DF80420012201
:1011A00008E050EA010306D030238DF804308DF8B2
:1011B000052002229146009B83F0080353EA0B03AB
:1011C0000AD150EA010201D1620705D530228DF81B
:1011D00004204FF001097F1E3278582A04D039A22A
:1011E0000C920CAA02920BE03BA2F9E75B46009A34
:1011F000FFF76DF80C9B9B5C029A521E02921370D3
:1012000050EA0102F2D1029804A9081A00F1200B59
:10121000600702D524F4803400E001275F4502DD39
:10122000A7EB0B0000E0002000EB0B0100900398FF
:101230004944401A0390E00306D453462146179AC6
:10124000039800F0A9F90544002706E001A85246DA
:10125000C05D179990476D1C7F1C4F45F6DBE0037E
:101260000CD553462146179A039800F095F905448A
:1012700004E030205246179990476D1C0099481E93
:1012800000900029F5DC08E00298029952460078A7
:10129000491C0291179990476D1CBBF10001ABF1FD
:1012A000010BF1DC5BE100F065F90544761C307858
:1012B00000287FF40DAE19B02846BDE8F08F00007D
:1012C000092801003031323334353637383961621C
:1012D00063646566000000003031323334353637E0
:1012E000383941424344454600000000600700D4BD
:1012F000062708F1070020F00700F0E802238046E7
:1013000003F0004C5FEA0C0001D097A009E0200533
:1013100001D596A005E0E00701D095A001E0AFF26D
:101320004C001390307823F0004365280CD006DC85
:10133000452809D046281DD047287FD13BE06628A4
:1013400018D067287AD136E00021112F01DB112057
:1013500000E0781CCDE9000104A90CA8FFF7EEFC21
:10136000DDE90D010C9A4FF0000B07F10109109215
:1013700000914EE04FF000400097CDE9011004A924
:101380000CA8FFF7DBFCDDE90D020C9B0F994FF079
:10139000000B91461093009211B9791C00EB0109E2
:1013A000B7EB090003D4C0F1FF3B07F10109A9EB3A
:1013B0000700019042E0012F00DA01270021112FE0
:1013C00001DD112000E03846CDE9000104A90CA898
:1013D000FFF7B4FCDDE90D010C9A00914FF0000B12
:1013E000B946109221070FD4009A4A4503DA914674
:1013F00001E0A9F10109B9F1010F05DD109AA9F188
:101400000101515C3029F4D0B84202DA10F1040F26
:1014100003DA0121CDE9011010E0002803DC834448
:10142000A9EB000102E0411C494500DD8946A0EB23
:101430000B00401C01904FF000400290200705D4A3
:101440000198484502DB4FF0FF30019000208DF8F5
:101450004B0002980DF14B07B0F1004F25D0022050
:101460000C902B200D90029800280CDA404202903C
:101470002D200D9007E00A210298FEF712FF30316F
:10148000029007F8011D0C99481E0C900029F2DC0F
:1014900002980028EFD1791E0D980870307800F07E
:1014A000200040F0450007F8020D11A8C01BC01D28
:1014B00002901398007800B1012000EB0901019817
:1014C00001EBE071029801440398401A401E03901A
:1014D000E00306D453462146179A039800F05CF8BF
:1014E00005441398007818B15246179990476D1C1F
:1014F000E00323D553462146179A039800F04CF891
:1015000005441BE0BBF1000F07DB0098584504DDE4
:101510001098179910F80B0001E0179930205246E7
:10152000904701980BF1010B401E05F10105019058
:1015300004D12E205246179990476D1CB9F1000135
:10154000A9F10109DEDC05E017F8010B52461799F5
:1015500090476D1C0299481E02900029F4DC534606
:101560002146179A03989EE62D0000002B000000EC
:10157000200000002DE9F041044600251E461746D4
:10158000880404D405E039462020B0476D1C641E51
:10159000F9D52846BDE8F0812DE9F0410446002543
:1015A0001E469046C80301D5302700E02027880456
:1015B00004D505E041463846B0476D1C641EF9D598
:1015C0002846BDE8F081000010B5044611A0FFF7E1
:1015D00091FB11A0FFF78EFB19A0FFF78BFB22A058
:1015E000FFF788FB2AA0FFF785FB33A0FFF782FBFC
:1015F00008A0FFF77FFB2046FFF77CFB04F12400E7
:1016000002F073F936A104F1240002F0F9F8012187
:10161000618510BD0D0A00002020205F5F5F5F5FC5
:101620005F205F5F5F202020205F5F5F5F5F202083
:101630005F5F5F5F205F5F5F5F5F5F0D0A000000BD
:1016400020202F205F5F5F5F2F2F2020207C202015
:101650002F205F5F5F2F202F20205F2F2F205F5FC5
:101660005F5F2F0D0A000000202F202F2020202058
:101670002F202F7C207C20205C5F5F205C20202F8F
:10168000202F202F202F20202020200D0A000000B6
:101690002F202F5F5F5F202F205F5F5F207C205F08
:1016A0005F5F2F202F5F2F202F202F202F5F5F5F66
:1016B0002020200D0A0000005C5F5F5F5F2F2F5F1E
:1016C0002F20207C5F7C2F5F5F5F5F2F2F5F5F5F2E
:1016D0002F205C5F5F5F5F2F20200D0A000000005D
:1016E0006C7320636D64000000214160491E01801D
:1016F000002200F108014368CA54704770B50546DE
:101700000C464FF0FF3694F8810030BB2F49284635
:1017100000F073F80646002E0ADB2D4850F826002C
:10172000002850D02A4850F82610204688474AE022
:101730001B2D0DD1022084F8810094F8801004F153
:101740006C00455494F88000401C84F880003AE016
:101750002946204600F06EFF35E094F8810002280B
:101760002ED194F8801004F16C004554612D01DBFA
:101770007A2D05DD412D01DB5A2D01DD7E2D0FD1A6
:101780001449284600F039F80646134850F8261048
:1017900020468847002084F8800084F8810012E009
:1017A00094F88000122805DD002084F8800084F879
:1017B000810008E094F88000401C84F8800002E07A
:1017C000002084F88100284670BD0000144F0008F6
:1017D0001C4F0008AC4E0008C44E000800214160B8
:1017E000491E0180002200F108014368CA5400210B
:1017F00080F8801080F88110704703460A46002167
:1018000000BF00E0491C505C984202D0505C0028A8
:10181000F8D1505C08B1084670474FF0FF30FBE745
:1018200070B505460E46002404E0285D034901F02A
:1018300023FC641CB442F8D370BD00009802002061
:1018400001480068704700000400002010B540F215
:10185000026001F075FD8023032210210C4800F086
:1018600081FD80210A4800F07BFD4FF4406001F0CB
:1018700067FD4FF4805303221021064800F072FDEB
:101880004FF48051034800F06BFD002010BD0000B4
:1018900000080140000C0140014609B903487047A7
:1018A000012901D10248FAE70020F8E734000020BE
:1018B0006000002010B5002000F0D3FD012000F0F2
:1018C000D0FD10BD10B5FFF7C1FF00F0F1F9FFF733
:1018D000F1FF00F017F800F01BFA002010BD000027
:1018E00010B58021064800F09BFD20B180210448FE
:1018F00000F034FD03E08021014800F031FD10BD0F
:101900000008014010B5054801F028FC00F00AF875
:101910000349087800F0BCF810BD0000A4000020C6
:101920008C000020F0B587B001261820002301AA02
:1019300057210090012000F022FC0746D7B101ADED
:10194000002409E0285DFF2804D000260CA0FFF742
:10195000D1F903E0601CC4B2182CF3D300BF2EB938
:10196000182201A90C48FEF73BFC03E00A4908785D
:1019700000F0DCF8084800680749486007B0F0BD8F
:10198000666163746F727920656570726F6D20692E
:101990006E69742E0D0A00008C00002030B587B0EF
:1019A00004461A49206888606068C860A0680861B9
:1019B000182000230A4657210090012000F03EFC29
:1019C0000546EDB14FF4FA7002F0A8FD182000238F
:1019D00001AA57210090012000F0D1FB05467DB1FE
:1019E0000A4880680399884209D10848C068049968
:1019F000884204D1054800690599884200D0002535
:101A000015B903A0FFF776F907B030BD8C000020B0
:101A100073617665206C636420636F6E666967200E
:101A20006661696C65642E0D0A00000010B588B00F
:101A300018220E4902A8FEF7D3FB1820002302AAA1
:101A400057210090012000F0F9FB044644B14FF407
:101A5000FA7002F063FD182202A90548FEF7C0FBE8
:101A600014B904A0FFF746F908B010BD944E000861
:101A70008C00002073617665206C636420636F6E58
:101A8000666967206661696C65642E0D0A00000056
:101A900070B5044641F270702349486100250F2C4F
:101AA00007DC0846806860430F21B0FBF1F085B287
:101AB00034E0232C0FDC1C48C0681B498968401A9D
:101AC000A4F10F0148431421B0FBF1F01649098934
:101AD000084485B222E0322C0FDC13480069124919
:101AE000C968401AA4F1230148430F21B0FBF1F06B
:101AF0000D498989084485B210E0FF2C0EDC0A48A4
:101B0000406909490969401AA4F132014843CE21CC
:101B1000B0FBF1F00449098A084485B2284600F078
:101B2000A9F80148446070BD8C00002030B587B032
:101B300005461348056018200023114A57210090DC
:101B4000012000F07BFB04469CB14FF4FA7002F0D8
:101B5000E5FC1820002301AA57210090012000F085
:101B60000EFB04462CB1064800680199884200D05B
:101B7000002414B903A0FFF7BDF807B030BD000082
:101B80008C00002073617665206C636420636F6E47
:101B9000666967206661696C65642E0D0A00000045
:101BA00010B511A0FFF7A6F81348016813A0FFF7BE
:101BB000A1F81148416816A0FFF79CF80E4881680B
:101BC00018A0FFF797F80C48C1681BA0FFF792F820
:101BD000094801691DA0FFF78DF80748416920A059
:101BE000FFF788F810BD00006C636420636F6E66B9
:101BF00069673A0D0A0000008C0000206465666188
:101C0000756C74206C6576656C3A2025640D0A004D
:101C100063757272656E74206C6576656C3A20250A
:101C2000640D0A00302E3563642F6D2A6D2020204C
:101C3000203A2025640D0A003263642F6D2A6D203E
:101C400020202020203A2025640D0A003563642FCF
:101C50006D2A6D2020202020203A2025640D0A00C6
:101C60006D61782063642F6D2A6D2020203A202535
:101C7000640D0A0070B504460848C068401C604303
:101C800041F65E21B0FBF1F0451E04B90025034A80
:101C9000D18810682A4602F00AF970BDA40000201D
:101CA00002480068401C0149086070470400002099
:101CB0001FB54FF4E06001F043FB4FF0804002F0AD
:101CC00037F96B20ADF800000020ADF80200ADF848
:101CD000040040F2E73002900020ADF80C008DF8CF
:101CE0000E0069464FF0804002F096F94FF08040B8
:101CF00001F0B4FF4FF0804002F088F9012200218A
:101D00001C2000F0BFFE0121880702F0F5F91FBD7D
:101D100010B54FF480510A4800F022FB1E2000F05D
:101D200025FA4FF48051064800F018FB1E2000F001
:101D30001DFA4FF48051024800F012FB10BD000064
:101D4000000C014070B504460D4617A0FEF7D2FF07
:101D500016A0FEF7CFFF19A0FEF7CCFF2548FEF72F
:101D6000C9FF25A0FEF7C6FF3148FEF7C3FF314883
:101D7000FEF7C0FF30A0FEF7BDFF3C48FEF7BAFFFC
:101D80002DA0FEF7B7FF3AA0FEF7B4FF43A0FEF781
:101D9000B1FF4CA0FEF7AEFF40A0FEF7ABFF02A0E4
:101DA000FEF7A8FF70BD00000D0A0000434C49205B
:101DB000436F6D6D616E643A0D0A00007665727353
:101DC000696F6E202020202020202020202020202D
:101DD0002020203A2073686F77206669726D7761E2
:101DE000726520696E666F6D6174696F6E2E0D0A83
:101DF00000000000005000087365742D6465666182
:101E0000756C742020202020202020202020203AC3
:101E1000207365742064656661756C7420636F6EF1
:101E200066696775726174696F6E2E0D0A00000035
:101E3000B44F0008885000082020202020202020B7
:101E40002020202020202020202020202020203A78
:101E50002070776D28302D3635353335292064755F
:101E60007479206379636C650D0A000044500008A2
:101E70007365742D6C6576656C206C6576656C2079
:101E8000202020202020203A20736574206C636479
:101E9000206C6576656C2E0D0A0000002020202045
:101EA0002020202020202020202020202020202032
:101EB0002020203A206C6576656C28302D3235352F
:101EC000290D0A007365742D73746172742D6C652D
:101ED00076656C206C6576656C20203A207365749D
:101EE000207374617274206C6364206C6576656C19
:101EF0002E0D0A0070B504460D46FFF797FD70BD24
:101F0000FEB506460D46042E1BDB002407E0611CCF
:101F1000695C4819FEF7B8F94DF82400641C032CDD
:101F2000F5DBDDE9000188420ADADDE901018842DA
:101F300006DA0298B0F5803F02DA6846FFF72EFD18
:101F400000BFFEBD70B506460D46022E10DB697857
:101F50004819FEF799F90446002C08DDFF2C06DC31
:101F6000E0B2FFF795FD214602A0FEF7C3FE00BFD9
:101F700070BD0000736574206C6364206C657665C9
:101F80006C20746F2025642E0D0A000070B5064683
:101F90000C46022E0ADB61780819FEF775F9054632
:101FA0000DB1012D01D102490D7000BF70BD0000BF
:101FB0000000002070B506460D46022E11DB697840
:101FC0004819FEF761F90446002C09DDB4F5803F9D
:101FD00006DAA0B2FFF74EFE214602A0FEF78AFE07
:101FE00000BF70BD736574206C63642070776D20D2
:101FF000746F2025642E0D0A0000000070B506469F
:102000000D46022E10DB69784819FEF73DF90446AB
:10201000002C08DDFF2C06DCE0B2FFF787FD21462F
:1020200002A0FEF767FE00BF70BD0000736574205C
:102030006C6364207374617274206C6576656C20C7
:10204000746F2025642E0D0A0000000070B5044650
:102050000D46FFF7A5FD70BD70B504460D46FFF7B0
:1020600057FE70BD70B505460E46FFF7E9FB044606
:10207000214602A0FEF73EFE70BD00007570746937
:102080006D653A2025756D730D0A000070B5044624
:102090000D4609A0FEF72EFE08A30BA20DA111A06C
:1020A000FEF728FE13A215A119A0FEF723FE02A039
:1020B000FEF720FE70BD00000D0A000031373A33F4
:1020C000353A34372E383300323032312F30342F16
:1020D00032370000436F6D706C69652054696D651F
:1020E00000000000252D3138733A20257320257318
:1020F0000D0A0000312E302E300000004669726D4E
:10210000776172652056657273696F6E000000001A
:10211000252D3138733A2025730D0A0010B5074874
:1021200001F03EF903220021012002F0D1FA034917
:1021300020398866024801F0F3FF10BD2C0300200F
:10214000C800002010B5074801F02AF90322002139
:10215000012002F0BDFA03498864034801F0E0FF62
:1021600010BD0000C00200200800002046F67811D3
:10217000484300BF011EA0F10100FBDC70472DE9C0
:10218000F04781460D4617461E46DDF8208068065A
:102190004FEA106A484600F0F2F9002040EA450094
:1021A00000F0FF0A5146484600F0BCF9484600F0EE
:1021B00019FA00B13DE03112484600F0B3F9484643
:1021C00000F010FA00B134E0F1B2484600F0AAF98C
:1021D000484600F007FA00B12BE0484600F0CFF97E
:1021E000012000EB450000F0FF0A5146484600F090
:1021F00099F9484600F0F6F900B11AE0002410E021
:10220000484600F067F93855A8F10100A04203D014
:10221000484600F00DF902E0484600F045F9601C20
:1022200084B24445ECDB484600F0C6F90120BDE825
:10223000F087484600F0C0F90020F8E72DE9FF4F8D
:1022400081B0884691461C460E9F4FEA4860000EBA
:1022500000902046E11704EB5161C911A4EBC11AAB
:102260000026B346019800F08AF9002040EA4800B1
:10227000C0B20090DDE9001000F054F9019800F0C0
:10228000B1F900B150E02112019800F04BF901982A
:1022900000F0A8F900B147E0E1B2019800F042F97E
:1022A000019800F09FF900B13EE0BAF1000F17D09D
:1022B000CAF18000B84201DB3E4601E0CAF1800667
:1022C00000250BE019F80510019800F02BF9019892
:1022D00000F088F900B127E0681C85B2B542F1DB57
:1022E00019E0B81B802802DB4FF0800B01E0A7EB60
:1022F000060B00250CE0701919F80010019800F089
:1023000011F9019800F06EF900B10DE0681C85B27A
:102310005D45F0DB5E44BE42E3DB019800F04CF922
:10232000012005B0BDE8F08F019800F045F90020CC
:10233000F7E7000070B504460D46074908682146D6
:1023400001F085FF00BF04490868072101F0D1FFB3
:102350000028F8D0204670BD080000204161704779
:1023600001617047F0B5044616460025002201F0D1
:102370000F0501F0100707B1354300201EE00127CB
:1023800087401F40C7B122684FEA800C0F2707FA29
:102390000CF7BA43870005FA07F73A43282904D116
:1023A000012787401F40676105E0482903D10127C5
:1023B00087401F4027612260471CB8B20828DED33F
:1023C000082022E0012787401F40E7B16268A0F1A2
:1023D00008074FEA870C0F2707FA0CF7BA43A0F15A
:1023E0000807BF0005FA07F73A43282904D1012757
:1023F00087401F40676105E0482903D101278740D6
:102400001F4027616260471CB8B21028DAD3F0BDC4
:1024100002469068084008B1012070470020FCE7A0
:102420000246D068084008B1012070470020FCE750
:1024300070B505462846FFF72FFA0446216AA06AC0
:10244000486100F02AF82169A069086100F025F8C8
:102450002169A069486100F020F8216AA06A08613A
:1024600070BD70B505462846FFF716FA0446E089A8
:1024700000F066FFA08B00F063FF03221421A36924
:102480002069FFF76FFF03221421A36A206AFFF778
:1024900069FF284600F090F870BD002001E0411C63
:1024A000C8B27828FBDB704770B505462846FFF7B1
:1024B000F3F90446216AA06A0861FFF7EEFF21697B
:1024C000A0690861FFF7E9FF2169A0694861FFF78A
:1024D000E4FF70BD2DE9F04107463846FFF7DCF90F
:1024E00004460025002618E0FFF7D7FF6806050E12
:1024F0002169A0690861FFF7D0FFFFF7CEFFA16A4D
:10250000206AFFF785FF08B1681CC5B22169A06980
:102510004861FFF7C2FF701CC6B2082EE4DB2846F4
:10252000BDE8F0812DE9F04107460D463846FFF73A
:10253000B3F9044600261EE005F0800018B1216AB8
:10254000A06A086102E0216AA06A4861FFF7A5FF5E
:102550002169A0690861FFF7A0FF2169A0694861AE
:10256000072E02D1216AA06A08616806050EFFF7EE
:1025700094FF701CC6B2082EDEDBBDE8F08170B59A
:1025800005462846FFF788F90446216AA06A0861D3
:102590002169A0690861FFF780FFFFF77EFF216ACC
:1025A000A06A4861FFF779FFFFF777FF2169A0690B
:1025B0004861FFF772FF70BD70B505462846FFF70A
:1025C0006BF90446216AA06A48612169A069086123
:1025D000FFF763FFFFF761FFFFF75FFF216AA06A64
:1025E000086170BD70B506463046FFF755F90446E0
:1025F000216AA06A0861FFF750FF2169A06908619C
:10260000FFF74BFFA16A206AFFF702FF08B101251F
:1026100000E000252169A0694861FFF73EFF2846D8
:1026200070BD10B5FFF74EF901F0F0FA01F074FA41
:10263000012010BD70B504460E46606862282FD296
:10264000B4F90000616888420DD2656807E0681E31
:1026500004F10801095C04F1080041556D1EB4F94C
:102660000000A842F3D32088401C00B2208060689C
:10267000401C6060B4F9001004F1080046540021C9
:1026800062688154B4F90000401C6168884202D23B
:102690000CA0FEF72FFB0D49304600F0EDFC0FE0DB
:1026A00061206060B4F900006168884203D3A088AB
:1026B000401E00B22080002104F1080062688154AD
:1026C00070BD00001B5B314000000000980200203C
:1026D00070B50446002506E004F16C01485D04492C
:1026E00000F0CAFC6D1C94F88000A842F4D870BDBC
:1026F0009802002070B504466E20005D332819D181
:10270000B4F90000451C05E004F10800691C415CB7
:1027100041556D1C6068A842F6D8A08800B2B4F993
:102720000010884206DD6068401E6060042102A03F
:10273000FFF776F870BD00001B5B31500000000011
:1027400070B50446B4F90000002819DBB4F9005054
:1027500005E004F10800691C415C41556D1C60688E
:10276000A842F6D82088401E00B220806068401E33
:1027700060600449082000F07FFC03A0FEF7BAFA6D
:1027800070BD0000980200201B5B3150000000006B
:1027900010B504461948408D00282DDDB4F900001D
:1027A000411C17A0FEF7A6FA17A0FEF7A3FA1348DC
:1027B000418D04F10802243000F0CAFF04F1080042
:1027C000FDF744FD6060A088401E00B2208004F147
:1027D00008006168FFF724F80848408D401C81B26A
:1027E00006484185418D008D814201DD012001E0D7
:1027F0000248408D0149488510BD00005C01002061
:102800001B5B2564440000001B5B4B0010B50446B5
:102810004FF0FF302080002060600648018D418528
:1028200005490D2000F028FC03490A2000F024FC93
:1028300010BD00005C0100209802002010B5044685
:10284000B4F90000002806DB2088401E00B220807A
:1028500001A0FEF74FFA10BD1B5B314400000000E1
:1028600010B504464FF0FF3020800020606004481F
:10287000018D418503490A2000F0FEFB10BD0000D8
:102880005C0100209802002010B50446B4F9001045
:102890006068401E814206DA2088401C00B2208019
:1028A00001A0FEF727FA10BD1B5B314300000000BA
:1028B00070B5044604F10801214800F011FF0646F6
:1028C000002E3CD06068F8B91EA0FEF713FA002570
:1028D0000DE01B48006AC5EBC50200EB82011AA09F
:1028E000FEF708FA17A0FEF705FA681CC5B21448EF
:1028F000006AC5EBC50100EB810040690028E8D102
:102900000F48FEF7F7F91AE0B4F90000411C0FA0D8
:10291000FEF7F0F90FA0FEF7EDF93046FDF796FC53
:102920006060A088401E00B22080314604F108009B
:10293000FDF7A1FC04F108006168FEF771FF70BDAE
:102940005C0100200D0A0000257300001B5B25645C
:10295000440000001B5B4B0010B504461848408D36
:1029600000282CDDB4F90000411C16A0FEF7C2F9C6
:1029700016A0FEF7BFF91248418D04F10802243079
:1029800000F0E6FE04F10800FDF760FC6060A0883E
:10299000401E00B2208004F108006168FEF740FF8D
:1029A0000748408D401E81B205484185408D10B9D1
:1029B0000348008D01E00248408D0149488510BD63
:1029C0005C0100201B5B2564440000001B5B4B0086
:1029D000F0B588B003460D462A46002403E00020E7
:1029E0000DF80400641C202CF9DB00BF10786E4643
:1029F00006EBE0000078167806F007070126BE40D7
:102A0000304316786F4607EBE606307012F8016B1C
:102A1000002EEBD10BB1194601E01948016800E026
:102A2000491C08786E4606EBE00000780E7806F048
:102A300007070126BE40304010B108780028EFD1CA
:102A40000B4610E008786E4606EBE00000780E7842
:102A500006F007070126BE40304018B1002001F8FB
:102A6000010B03E0491C08780028EBD100BF0448A3
:102A700001608B4202D1002008B0F0BD1846FBE790
:102A8000900200202DE9F04103460D461646002431
:102A90000027A0462448006800F4E060B0F5A06F6D
:102AA00015D006DCB0F5407F18D0B0F5806F19D195
:102AB00010E0B0F5C06F06D0B0F5E06F12D100277E
:102AC0004FF0040815E001274FF0030811E002273A
:102AD000B8460EE003274FF001080AE004274FF044
:102AE000000806E04FF4A06000F022F80227B84684
:102AF00000BF00BFC7F1040005FA00F4C8F10401EB
:102B00000F20C8403040044324010848C45403F057
:102B10001F01012088405911890001F1E021C1F80D
:102B20000001BDE8F08100000CED00E000E400E0F1
:102B300002490143024A1160704700000000FA0593
:102B40000CED00E02DE9F04105460E461C480768F3
:102B50001C480068001D01F03CFC50B91948006891
:102B600090F82C10012088401749096881431648C5
:102B70000160681C38B936B112480168091D134854
:102B800001F065FC1AE07C190E4800684460BC4204
:102B900007D20C480168091D0D48006801F03DFC92
:102BA0000CE008480168091D0A48006801F035FC7E
:102BB00009480068844201D207480460BDE8F081FA
:102BC00010010020FC000020140100202C04002033
:102BD00004010020000100202C01002010B5044653
:102BE00001F042FC23480068401C2249086022484A
:102BF000006840B9204804600846006801280DD1EB
:102C000000F052F90AE01D48006838B91A48006817
:102C1000C06AE16A884201D8174804601848006811
:102C2000401C1749086094F82C1001208840154971
:102C30000968084313490860E16A01EB8101124AFF
:102C400002EB8100211D01F002FC01F01FFC0B488A
:102C5000006868B108480068C06AE16A884207D223
:102C60004FF0805009490860BFF34F8FBFF36F8F5B
:102C700010BD00000C010020FC0000201801002005
:102C800028010020140100207803002004ED00E05A
:102C900010B516E001F0E8FB0C48C068C468201DC0
:102CA00001F097FB0A480068401E0949086009487E
:102CB0000068401E0749086001F0E8FB204600F06C
:102CC00040F8044800680028E4D110BD1804002032
:102CD0000C010020080100202DE9F04104460F46B8
:102CE00015464FF00008A66B206C28B37DB9394615
:102CF000226C6068FDF774FA216C606808446060BB
:102D0000D4E90101884217D32068606014E0394695
:102D1000226CE068FDF764FA216CE068411AE1601A
:102D20002168E068884203D2216CA068411AE16002
:102D3000022D01D106B1761E701CA0634046BDE88D
:102D4000F08110B50446206B01F0B0FB204601F085
:102D5000ADFB10BD30B54FF48053174800F00704A9
:102D60002CB1C01D20F00700134C041B1B1B024696
:102D7000124C22600024114D6C60D018083820F0ED
:102D800007000F4C206000240D4D2D686C600C4D29
:102D90002D682C601146441A4C60094C24680C6064
:102DA000084D4C682C60084D4C682C604FF0004476
:102DB000064D2C6030BD0000400400203C01002086
:102DC000440100204C01002048010020580100204F
:102DD00000BFFFF75DFF064800680128F9D94FF0F2
:102DE000805004490860BFF34F8FBFF36F8FF0E747
:102DF0007803002004ED00E02DE9F04106460D4681
:102E000017469846069C0DB9246000E02760E663EB
:102E100025640121204601F075FCBDE8F0812DE913
:102E2000FF5F80460E469146DDE90E7A109CA9F1BF
:102E30000100216B01EB800B2BF0070B86B1002505
:102E400007E0715D04F134004155705D00B902E0A6
:102E50006D1C102DF5D300BF00214320015502E069
:102E6000002084F83400052F00D30427E762201DDA
:102E700001F0D0FA04F1180001F0CCFA2461C7F196
:102E80000500A06164620020606484F84800414647
:102E90005846039A00F0B0F92060BAF1000F01D053
:102EA000CAF80040BDE8FF9F10B5002407E004EB1E
:102EB00084010F4A02EB810001F09FFA641C052C8B
:102EC000F5D30C4801F099FA0B4801F096FA0B483B
:102ED00001F093FA0A4801F090FA0A4801F08DFADD
:102EE00004480949086004480849086010BD00000A
:102EF00078030020DC030020F003002004040020FD
:102F0000180400202C0400200001002004010020EF
:102F100010B50146164800E0006803688B42FBD3F9
:102F20000246436813448B4204D143684C682344EF
:102F3000436001460A464B6813440468A34211D11A
:102F40000C4C03682468A34208D04B68046864688A
:102F500023444B6003681B680B6005E0054B1B684E
:102F60000B6001E003680B60884200D0016010BD77
:102F70003C0100204401002070B5054601F074FAC0
:102F8000A86B08B9012400E0002401F07FFA204674
:102F900070BD70B5054601F067FAA86BE96B884211
:102FA00001D1012400E0002401F070FA204670BD38
:102FB0000A490968096809B9012100E0002121B125
:102FC0004FF0FF31064A116006E004490968C968FC
:102FD000C868034A41681160704700000001002082
:102FE0002C01002000BFBF2080F31188BFF34F8F5A
:102FF000BFF36F8F00BF00BFFEE770B5044601F05E
:1030000033FA94F9455010E0606A08B9012000E0F5
:10301000002038B904F1240001F0E0FD18B101F0FE
:10302000A3FA00E003E0681E45B2002DECDC00BF0F
:10303000FF2084F8450001F029FA01F015FA94F90F
:10304000445010E0206908B9012000E0002048B990
:1030500004F1100001F0C2FD08B101F085FA681E0C
:1030600045B200E001E0002DECDC00BFFF2084F859
:10307000440001F00BFA70BDFFF75CB92DE9F04197
:1030800005464FF0000801F0B7FA2E48006808B96D
:10309000FFF760FE2C480068284000284CD145B15D
:1030A000083505F0070020B105F00700C0F1080061
:1030B0000544002D40D02548006885423CD8244E68
:1030C0003046046801E0264624686068A84202D2BF
:1030D00020680028F7D11B48006884422CD0306853
:1030E00000F10808206830606068401B102807D98C
:1030F00067196068401B786065603846FFF708FF15
:10310000124960680968081A104908600846006892
:1031100010490968884203D20C4800680D490860CC
:1031200009496068096808436060002020600A4817
:103130000068401C0849086001F090FD4046BDE869
:10314000F0810000440100205801002048010020C7
:103150003C0100204C0100205001002010B588B037
:103160000446E08A00F0ECF84FF4C06000F0E8F8A4
:1031700003221821236AA069FFF7F4F8A08800F061
:10318000DFF8206800F0D4FE2089ADF804000020AC
:10319000ADF80600ADF80800E06803900020ADF837
:1031A00010008DF8120001A9206800F035FF207D85
:1031B000C8B10020ADF818000120ADF81400E18876
:1031C00005AA206800F050FDE1882269206800F01F
:1031D0006EFEE1886022206800F03CFEE18800225B
:1031E000206800F077FE206800F038FD206800F0CD
:1031F0000DFF08B010BD0000001F4FF0807303608A
:10320000001F21F001030360001F034B036014380B
:103210000260203870470000E52F00082DE9F04FCC
:103220008BB00746002009903EA090E8004CC06893
:10323000CDE905BECDF810A007900FF2EC0ADAE94F
:10324000000ACDE9020A0FF2E00ADAE9000ACDE944
:10325000000A38484068C0F381000A900A9820B1FB
:10326000012804D0022829D103E0334928E032495B
:1032700026E03048406800F48038B8F5803F09D136
:103280002D4C2C48406800F40039B9F5003F02D1BC
:10329000641000E0294C27484068C0F38342254869
:1032A000406800F0006008B142F010020F2A01D21D
:1032B000921C00E0521C04FB02F101E01E4900BF19
:1032C00000BF1C484068C0F3031504A8465D21FAFE
:1032D00006F318484068C0F3022502A8465D23FAA9
:1032E00006FC14484068C0F3C2251DF8056023FAA7
:1032F00006F0089037B1012F06D0022F06D0032F19
:103300000AD106E0099108E0099306E0CDF824C04F
:1033100003E00898099000E000BF00BF09980BB0D7
:10332000BDE8F08F0000000000000000010203046F
:10333000060708090010024000127A0000093D004B
:10334000064A02EB9011096800F01F0301229A401F
:103350001143024B03EB90121160704700100240C2
:10336000064A02EB9011096800F01F0301229A40FF
:103370009143024B03EB9012116070470010024022
:10338000064A02EB9011096800F01F0301229A40DF
:103390001143024B03EB9012116070470010024082
:1033A00010B5044648212046FCF733FF4020E0805A
:1033B00010BD01468888002801DD002070470120EB
:1033C000FCE7F0B503460D4616463246988808B924
:1033D0000020F0BD9888B04200DA9A8872B60024C6
:1033E00018881044DF88B8421EDB198807E003F113
:1033F0000800405C2855601C84B2481C81B2D88803
:103400008842F4DC002106E003F10800405C671804
:10341000E855481C81B2101B8842F5DC9888801A58
:103420009880101B188013E0198807E003F108004A
:10343000405C2855601C84B2481C81B21888104436
:103440008842F3DC9888801A988018881044188085
:1034500062B61046BDE7F0B503460D461646324645
:103460009888DF88B84201DB0020F0BD988830449E
:10347000DF88B84203DDD8889F88C01B82B2002451
:1034800058881044DF88B84221DB598807E02F5D57
:1034900003F108004754601C84B2481C81B2D888EC
:1034A0008842F4DC002106E060182F5C03F108007C
:1034B0004754481C81B2101B8842F5DC98881044A0
:1034C000988058881044DF88C01B588013E05988C2
:1034D00007E02F5D03F108004754601C84B2481CCC
:1034E00081B2588810448842F3DC98881044988050
:1034F0005888104458801046B7E7000010B50446BD
:103500002948807930B1012810D0022824D003281E
:1035100043D135E0A52C05D123488079401C2249B0
:10352000887102E00020204988713AE05A2C0FD1BE
:103530001D488079401C1C49887100200881162193
:1035400019480A30FCF765FE05211748818102E021
:1035500000201549887124E0134801890E30445435
:103560000E380089401C104908810846018980896D
:10357000814204DB0C488079401C0B49887110E0C3
:103580000948C4830020084988710846006818B1BA
:10359000084601680A30884703E000200249887124
:1035A00000BF00BF10BD0000A0020020704770B532
:1035B00004460025322C02DA04EB84050BE0FF2CD4
:1035C00009DCA4F1320049F646314843CE2190FB94
:1035D000F1F000F1FA05A8B2FEF74CFB70BD70B532
:1035E0000346D01C814201DA002070BD002003E0B8
:1035F0001D5C2544ACB2401C9042F9DB901C1C546D
:10360000501E03E01E5C851C5E55401E0028F9DA42
:10361000A52018705A205870D01C80B2E5E7000031
:10362000FEB505462C460020009001900290002730
:103630002079802804D0842818D0862831D122E02F
:103640006079FFF7B4FF6079FEF722FA60791F49CD
:10365000086081208DF8000060798DF80100052256
:103660000C216846FFF7BBFF07461AE00020FFF772
:103670009EFF85208DF8000005220C216846FFF78B
:10368000AEFF07460DE011480068FFF790FF872066
:103690008DF8000005220C216846FFF7A0FF0746C1
:1036A00000BF00BF00260EE01DF80610084A106893
:1036B00000F0CDFD00BF06490868072100F019FEA3
:1036C0000028F8D0761CBE42EEDBFEBDF4000020E0
:1036D000C80000200149086070470000A0020020D7
:1036E0002DE9F047044688460026B146FF2700250D
:1036F00023E00026C5EBC502216A01EB82004146AA
:10370000FCF792FD0646B6B1C5EBC501206A00EB99
:103710008100301AB8420ED294F82000C5EBC501E2
:1037200000EB8100301AC7B2C5EBC501206A00EB7F
:10373000810907B908E0681CC5B2C5EBC501206A5C
:1037400010F821000028D4D100BF4846BDE8F0871A
:10375000F0B503460E4614469F88B7424FDB1F88DC
:1037600037447F1EBAB2032A01DD171F00E0174657
:10377000BAB203F10E07B95C571CBAB2032A01DDD5
:10378000002700E017463A4603F10E07BD5CA94248
:1037900012DA084608E003F112073F5CA0EB010CC7
:1037A00004F80C70471CB8B2A842F4DB0027A0EB69
:1037B000010C04F80C7022E0084608E003F112073F
:1037C0003F5CA0EB010C04F80C70471CB8B2FE285B
:1037D000F4DB00200AE003F1120717F800C000F143
:1037E000FE077F1A04F807C0471CB8B2A842F2DBF4
:1037F0004FF0000C00F1FE077F1A04F807C0F0BD7F
:103800002DE9F04104460E463046FCF71FFD87B215
:10381000FD2F01DDBDE8F0812DE02088401C2080D7
:103820002088032801DD002000E020882080A08877
:10383000401EA0802189228804F10E00805C814214
:1038400009DC218804F10E00405C2189401AA1891D
:10385000081AA0810AE0218804F10E00405CFD30C6
:103860002189401A401CA189081AA081218804F1ED
:103870000E00405C2081A089C0F1FD00B842CCDB85
:10388000A0880328C9D0A17A628804F10E0081546F
:10389000608880B2401C60806088032801DD0020C1
:1038A00000E060886080A088401CA080002513E0B4
:1038B000715D628904F1120081546089401C60814D
:1038C0006089FD2801DD002000E060896081A08919
:1038D000401CA081681C85B2BD42E9DBA17A6288E8
:1038E00004F10E00815400BF94E700210180418063
:1038F000818001814181818170472DE9FE4F04461D
:103900008946278800200190A08810B90198BDE859
:10391000FE8F4846FCF79AFC1FFA80FA002647E023
:1039200004F10E00C55D781C87B2032F01DD002075
:1039300000E03846074604F10E0010F807804545C0
:1039400004DCA8EB050080B2029004E0C5F1FE00A3
:10395000404480B202900298504527D1701C80B23A
:10396000019000954FF0000B19E004F1120000994E
:10397000405C19F80B10884202D00020019010E042
:103980000098401C80B200900098FD2801DD0020C6
:1039900000E0009800900BF101001FFA80FBD34576
:1039A000E3DB00BF019808B10198B0E7701C86B254
:1039B000A088B042B4DC0020A9E700002DE9F04364
:1039C0009DB080460E460024B1460A25314608F1D6
:1039D0002400FFF792FF30B9307820B1314608F16A
:1039E0002400FFF70DFF3046FCF730FC642809D9AE
:1039F0002AA0FDF77FF941462FA0FDF77BF91DB006
:103A0000BDE8F0832DA14846FEF7E2FF814631462E
:103A1000404600F061F807466FB9FCF7DDFB00682F
:103A20003178405C00F0980000282DD0494624A051
:103A3000FDF760F928E001A8055501A948193146AC
:103A4000FCF719FC3046FCF701FC401C2844C5B2C9
:103A5000601CC4B213E019A10020FEF7B9FF814633
:103A600001A8055501A948194946FCF704FC484638
:103A7000FCF7ECFB401C2844C5B2601CC4B2B9F191
:103A8000000FE8D1601EC4B217B101A92046B847A3
:103A90004046FDF72FF900BFB1E700007468697375
:103AA00020636F6D6D616E6420697320746F6F2089
:103AB0006C6F6E672E0D0A00257300002000000059
:103AC0006E6F20636F6D6D616E64206E616D6564F5
:103AD0003A2025730D0A000070B504460E460025F5
:103AE00010E0C5EBC502206A00EB82013046FCF70E
:103AF000B4FB30B9C5EBC501206A00EB8100406919
:103B000070BD6D1CC5EBC501206A00EB81004069EA
:103B10000028E6D100BFF3E71CB5002002210346D0
:103B20008022CDE9001004A1044800F099FF00F0C4
:103B300031FD00BFFEE700006170700075090008EC
:103B4000002000212C4A126842F480322A4B1A606D
:103B500000BF401C284A126802F4003119B94FF620
:103B6000FF729042F5D1244A126802F400320AB979
:103B700000BFFEE7204A52681F4B5A601A4652683F
:103B80005A601A46526842F480625A601A46526875
:103B900022F440325A601A46526842F440325A6067
:103BA0001A465268154B1A40134B5A601A4652680F
:103BB000134B1A43104B5A601A46126842F0807237
:103BC0001A6000BF0C4A126802F00072002AF9D095
:103BD000094A526822F00302074B5A601A4652689B
:103BE00042F002025A6000BF034A526802F0080223
:103BF000002AF9D07047000000100240FFFFC3F711
:103C00000000280810B5FFF79BFF10BD10B5124843
:103C100000684FF47A71B0FBF1F4601EB0F1807F60
:103C200001D301200FE0601E4FF0E02148610F2119
:103C30004FF0FF30FCF738FF00204FF0E0218861A3
:103C400007200861002008B100BFFEE70021481EE0
:103C5000FCF72AFF10BD0000F8000020016841F0C9
:103C6000800101607047000010B531B101293FD0DB
:103C700002297DD003297CD1BFE0036A23F0010330
:103C80000362836923F003038361036A1488234377
:103C90000362036A23F002030362036A94882343E6
:103CA00003626A4B984202D0694B98421FD1036A63
:103CB00023F004030362036A548823430362036A04
:103CC00023F008030362036AD48823430362436832
:103CD00023F480734360436814892343436043683B
:103CE00023F4007343604368548923434360ABE08B
:103CF000036A23F010030362836923F44073836132
:103D0000036A148843EA04130362036A23F020035E
:103D10000362036A948843EA041303624B4B98429C
:103D200002D04B4B984226D1036A23F04003036232
:103D3000036A548843EA04130362036A23F080038E
:103D40000362036AD48843EA04130362436823F4DA
:103D5000806343604368148943EA84034360436893
:103D600023F4006343604368548943EA840301E019
:103D700002E068E0436067E0036A23F48073036253
:103D8000C36923F00303C361036A148843EA04236D
:103D90000362036A23F400730362036A948843EAAC
:103DA00004230362294B984202D0294B984223D125
:103DB000036A23F480630362036A548843EA04239A
:103DC0000362036A23F400630362036AD48843EA4C
:103DD00004230362436823F48053436043681489D7
:103DE00043EA04134360436823F400534360436889
:103DF000548943EA0413436026E0036A23F48053A2
:103E00000362C36923F44073C361036A148843EAFD
:103E100004330362036A23F400530362036A948841
:103E200043EA04330362094B984202D0084B98429C
:103E300008D1436823F4804343604368148943EA0C
:103E40008413436000E000BF00BF10BD002C0140A0
:103E50000034014031B101290CD0022913D00329CB
:103E600022D118E0836923F07003836183691343CF
:103E700083611AE0836923F4E0438361836943EA41
:103E80000223836111E0C36923F07003C361C36936
:103E90001343C36109E0C36923F4E043C361C36909
:103EA00043EA0223C36100E000BF00BF704731B1A5
:103EB000012906D0022906D0032908D105E0426372
:103EC00006E0826304E0C26302E0026400E000BF37
:103ED00000BF704731B101290CD0022913D003294A
:103EE00022D118E0836923F00803836183691343B7
:103EF00083611AE0836923F400638361836943EA81
:103F00000223836111E0C36923F00803C361C3691D
:103F10001343C36109E0C36923F40063C361C36948
:103F200043EA0223C36100E000BF00BF7047000006
:103F300010B504463349601A8C4244D00CDCB4F10D
:103F4000804F1CD03048204410B3B0F5806F28D08B
:103F5000B0F5006F52D12DE0B0F5806F3CD0B0F5D8
:103F60008E3F03D0B0F5923F48D13EE040F20B3097
:103F7000FFF706FA40F20B30FFF7F2F93FE04FF49B
:103F80008060FFF7FDF94FF48060FFF7E9F936E054
:103F900040F20140FFF7F4F940F20140FFF7E0F989
:103FA0002DE040F20240FFF7EBF940F20240FFF74C
:103FB000D7F924E040F20340FFF7E2F940F2034072
:103FC000FFF7CEF91BE040F20440FFF7D9F940F2C9
:103FD0000440FFF7C5F912E040F20540FFF7D0F9C1
:103FE00040F20540FFF7BCF909E040F20D30FFF761
:103FF000C7F940F20D30FFF7B3F900E000BF00BF92
:1040000010BD00000010004000FCFFBF016841F03F
:1040100001010160704700000A888262294A9042CB
:1040200020D0B0F1804F1DD0274A90421AD0274AA5
:10403000904217D0264A904214D0264A904211D07E
:10404000254A90420ED0254A90420BD0244A9042F5
:1040500008D0244A904205D0234A904202D0234AF5
:1040600090420FD1026822F07002026002688B78E1
:1040700003F060031A43026002680B7903F0100337
:104080001A4302608A68C262194A90420CD0194AE7
:10409000904209D0026822F44072026002688B8963
:1040A00003F440731A430260064A904202D0094A60
:1040B000904201D18A7B0263426942F0010242616F
:1040C00070470000002C0140000400400008004040
:1040D000000C004000340140004C01400050014001
:1040E0000054014000180040001C00400020004027
:1040F0000010004000140040C2680A43C2607047CC
:1041000002698A43026170470246D06800EA0103EF
:104110001069084010B10BB1012070470020FCE786
:1041200010B50446A089FFF70BF9208BFFF708F9BB
:10413000A088FFF705F903221821D4E90403FEF74C
:1041400011F903220421D4E90703FEF70BF92068D3
:1041500000F082F84FF4E131206800F02BF80021E4
:10416000206800F02EF90021206800F01AF90021E3
:10417000206800F006F90021206800F0D1F8002145
:10418000206800F0C5F80421206800F002F9082139
:10419000206800F00EF9206800F0A6F8A07900224F
:1041A0001146FEF76FFC40F20531206800F0C0F8C0
:1041B000002010BD2DE9F04704460D460027B84603
:1041C000B94600261D49601A8C421CD006DC1C48EA
:1041D000204470B1B0F5806F1FD10FE0B0F5806F53
:1041E00016D0B0F56C4F18D10320FFF717F807462B
:1041F00014E00220FFF712F807460FE00220FFF755
:104200000DF807460AE00220FFF708F8074605E028
:104210000220FFF703F8074600E000BF00BF07EBEE
:104220005500B0FBF5F64FF6F07006EA000806F010
:104230000F0948EA0900A060BDE8F087004C004083
:1042400000BCFFBF01464868C0F308007047C1F3D7
:10425000080242607047000010B504462049601A09
:104260008C4228D006DC1F48204490B1B0F5806F06
:1042700033D117E0B0F5806F26D0B0F56C4F2CD15C
:1042800040F20E30FFF77CF840F20E30FFF768F88E
:1042900024E040F21140FFF773F840F21140FFF7BD
:1042A0005FF81BE040F21240FFF76AF840F212405C
:1042B000FFF756F812E040F21340FFF761F840F2C2
:1042C0001340FFF74DF809E040F21440FFF758F8AB
:1042D00040F21440FFF744F800E000BF00BF10BDFB
:1042E000004C004000BCFFBFC16841F40051C160F8
:1042F000704710B5024602EB9110006801F01F04F0
:104300000123A340184008B1012010BD0020FCE7A4
:104310000A460021416921F400711143416170474F
:104320000A460021416921F48071114341617047BF
:1043300010B5C1F38912825801F01F040123A34074
:104340001A43C1F38913C25010BD70B50246002351
:104350000024C1F38910105801F01F060125B54053
:1043600000EA050302EB91500068C1F30446012501
:10437000B54000EA050414B10BB1012070BD002066
:10438000FCE7C26822F4C062C260C2680A43C2602D
:1043900070470A460021C16821F004011143C16041
:1043A0007047026922F44052026102690A430261C5
:1043B00070470A460021C16821F008011143C1601D
:1043C0007047C26822F48052C260C2680A43C26069
:1043D000704701460A69D1E901309860D1E90103CB
:1043E00058605068884201D1886850600020086198
:1043F0001068401E10601068704700F108014160AD
:104400004FF0FF31816000F10801C16001610021BE
:104410000160704700210161704710B502460B68CA
:104420005C1C0CB9106907E002F1080000E040686C
:10443000446824689C42FAD944684C604C68A16086
:10444000886041600A611468641C146010BD426891
:104450004A6093688B609368596091600861036853
:104460005B1C03607047000000BFBF2080F3118811
:10447000BFF34F8FBFF36F8F00BF03480068401C2E
:1044800001490860704700003801002006480068B4
:10449000401E054908600846006820B9002080F3E6
:1044A000118800BF00BF70473801002070B5064674
:1044B0003546FEB1083D2C460F4960680968084042
:1044C000C0B12068B0B90C49606809688843606071
:1044D00000F092F8094960680968084407490860D3
:1044E0002046FEF715FD06480068401C0449086098
:1044F00000F0B4FB70BD000058010020480100200E
:104500005401002000204FF0E0210861886102483A
:104510004861072008617047DFA5010070B50446B7
:10452000002544B100F068F800212046FEF70AFBA0
:1045300000F094FB05463DB94FF0805003490860F8
:10454000BFF34F8FBFF36F8F70BD000004ED00E02D
:104550000349096801600349096841607047000028
:10456000240100201001002001200149086070474B
:104570002001002070B505460C4605480168183139
:104580002846FFF74AFF01212046FEF7DBFA70BDFF
:10459000FC0000201CB5114800210B468022CDE90B
:1045A00000100FA1104800F05BFA0446012C14D152
:1045B00000BFBF2080F31188BFF34F8FBFF36F8F11
:1045C00000BF4FF0FF30094908600120084908602A
:1045D00000200849086000F047F81CBD30010020A9
:1045E00049444C4500000000D12D00082C0100205A
:1045F000180100201001002002480068401C0149F9
:1046000008607047340100201248006818B101208A
:10461000114908601DE000200F4908600F4800683C
:10462000B0FA80F0C0F11F0101EB81020C4B03EBEB
:10463000820042685268426000F108024368934277
:1046400002D14268526842604268D268054B1A60E3
:1046500000BF704734010020200100201401002019
:1046600078030020FC00002010B50A48006840F4E0
:104670007F00084908600846006840F07F400860F5
:10468000FFF740FF002004490860FBF759FD0020B8
:1046900010BD000020ED00E03801002010B500BF83
:1046A000BF2080F31188BFF34F8FBFF36F8F00BF20
:1046B00000F006FA18B14FF080500449086000BFBE
:1046C000002080F3118800BF10BD000004ED00E061
:1046D0002DE9F84305460E46174605FB06F909F194
:1046E0004800FEF7CBFC04464CB1A04608F1480850
:1046F0003B464246314628460094FEF77DFB204665
:10470000BDE8F88370B505460E462C46FFF7ACFEB3
:10471000D4E90F12206801FB0200A0600020A06312
:1047200020686060E06B401E226C216800FB021173
:10473000E160FF2084F8440084F845009EB92069B8
:1047400008B9012000E00020A8B904F1100000F031
:1047500045FA80B14FF0805009490860BFF34F8F90
:10476000BFF36F8F07E004F11000FFF746FE04F17E
:104770002400FFF742FEFFF789FE012070BD000014
:1047800004ED00E02DE9FF4383B0074688461D464F
:104790004FF000093C4600BFFFF766FEA06BE16BDF
:1047A000884201D3022D28D12A4641462046FEF7F1
:1047B00093FA0646606A08B9012000E0002068B953
:1047C00004F1240000F00AFA88B14FF08050324919
:1047D0000860BFF34F8FBFF36F8F08E03EB14FF01B
:1047E00080502D490860BFF34F8FBFF36F8FFFF7E5
:1047F0004DFE012007B0BDE8F083059818B9FFF71A
:1048000045FE0020F6E7B9F1000F04D101A8FFF73B
:104810009FFE4FF00109FFF739FEFFF7EDFEFFF7AE
:1048200023FE94F94400401C10B9002084F8440091
:1048300094F94500401C10B9002084F84500FFF7AA
:1048400025FE05A901A800F0DDF8F0B92046FEF725
:10485000A0FBA0B104F110000599FFF78BFE2046E4
:10486000FEF7CBFB00F0FAF9002895D14FF080500D
:1048700009490860BFF34F8FBFF36F8F8CE7204665
:10488000FEF7BBFB00F0EAF986E72046FEF7B5FB32
:1048900000F0E4F90020ADE704ED00E02DE9F04779
:1048A00005460E462C4600BFBF21EFF3118081F371
:1048B0001188BFF34F8FBFF36F8F00BF8046D4F8CE
:1048C0003890E06B48451DD994F945A009F10100E5
:1048D000A0630AF1010070B9606A08B9012000E024
:1048E000002068B904F1240000F078F940B13EB12D
:1048F0000120306004E00AF1010040B284F8450074
:10490000012700E0002700BF88F3118800BF384668
:10491000BDE8F087F3B583B0054600272C4600BFFD
:10492000FFF7A2FDA66BCEB1701EA063206908B987
:10493000012000E0002060B904F1100000F04EF901
:1049400038B14FF080502E490860BFF34F8FBFF34E
:104950006F8FFFF79BFD012005B0F0BD049818B9DB
:10496000FFF794FD0020F7E71FB901A8FFF7F0FD5E
:104970000127FFF78BFDFFF73FFEFFF775FD94F969
:104980004400401C10B9002084F8440094F945000C
:10499000401C10B9002084F84500FFF777FD04A9FA
:1049A00001A800F02FF8F0B92046FEF7E5FAA0B113
:1049B00004F124000499FFF7DDFD2046FEF71DFBFE
:1049C00000F04CF90028ABD14FF080500C49086042
:1049D000BFF34F8FBFF36F8FA2E72046FEF70DFBAB
:1049E00000F03CF99CE72046FEF707FB00F036F9A3
:1049F0002046FEF7C1FA002892D00020ACE7000064
:104A000004ED00E070B506460C46FFF72DFD124898
:104A100002687068131A2068401C08B9002517E066
:104A20000E4930680968884204D07068904201D805
:104A300001250DE02068984207D92068C01A20603F
:104A40003046FFF785FD002502E0002020600125AB
:104A5000FFF71CFD284670BD100100202401002036
:104A60002DE9FF4F85B0804689461746DDE912AB38
:104A7000B800FEF703FB064656B14C20FEF7FEFADF
:104A800004460CB1266304E03046FFF70FFD00E05A
:104A900000247CB10020CDE900ABCDE902403A46CC
:104AA00049464046089BFEF7BAF92046FEF796F8BD
:104AB000012501E04FF0FF35284609B0BDE8F08F31
:104AC0002DE9F04100273A480068002867D13948AD
:104AD0000068451C374805608DB93748D0F800801C
:104AE00036480068344908603448C0F800803448CB
:104AF0000068401C32490860FEF75AFA00BF31488E
:104B0000006885423BD300BF2B480068006808B9A5
:104B1000012000E0002020B14FF0FF30294908605B
:104B20002CE025480068C068C4686668B54202D2B7
:104B30002448066022E0201DFFF74BFCA06A18B154
:104B400004F11800FFF745FC94F82C100120884070
:104B50001D49096808431C490860E16A01EB8101AD
:104B60001A4A02EB8100211DFFF771FC1849E06A27
:104B70000968C96A8842C7D30127C5E700BF14483E
:104B80000068C06A00EB8000104951F8200001283D
:104B900000D901270F48006800B1012704E00E4842
:104BA0000068401C0C4908603846BDE8F0810000F0
:104BB0003401002010010020000100200401002029
:104BC000240100202C010020140100207803002083
:104BD000FC000020200100201C01002070B50646CA
:104BE000F068C46804F11800FFF7F3FB154800688B
:104BF000A8B9201DFFF7EDFB94F82C100120884088
:104C000011490968084310490860E16A01EB810114
:104C10000E4A02EB8100211DFFF719FC04E004F1AC
:104C200018010B48FFF713FC0A49E06A0968C96AD2
:104C3000884204D9012501200749086000E00025C9
:104C4000284670BD340100201401002078030020A4
:104C500004040020FC0000202001002070B5002486
:104C60000026FFF701FC2E480068401E2C49086012
:104C70000846006800284FD12A48006800284BD019
:104C800024E02948C068C46804F11800FFF7A1FBBC
:104C9000201DFFF79EFB94F82C100120884023492B
:104CA0000968084321490860E16A01EB8101204A53
:104CB00002EB8100211DFFF7CAFB1E49E06A09686B
:104CC000C96A884202D301201B490860164800685F
:104CD00008B9012000E000200028D2D00CB1FEF776
:104CE00067F91648056865B100BFFFF7E9FE10B126
:104CF0000120114908606D1E002DF6D100200F49DA
:104D000008600D48006838B1012630070C4908607A
:104D1000BFF34F8FBFF36F8FFFF7B8FB304670BD07
:104D2000340100200C0100200404002014010020A4
:104D300078030020FC000020200100201C0100203E
:104D400004ED00E068656C700000000000000000E9
:104D50000000000000000000451D000800000000E9
:104D600076657273696F6E0000000000000000003D
:104D7000000000008D200008000000007365742D05
:104D80007072696E740000000000000000000000F6
:104D90008D1F0008000000007365742D70776D0092
:104DA000000000000000000000000000B51F000827
:104DB000000000007365742D6C6364000000000047
:104DC0000000000000000000011F000800000000BB
:104DD0007365742D6C6576656C0000000000000042
:104DE00000000000451F0008000000007365742DDE
:104DF00073746172742D6C6576656C000000000040
:104E0000FD1F0008000000007365742D6465666175
:104E1000756C74000000000000000000F51E000822
:104E20000000000073686F772D636F6E666967001E
:104E300000000000000000004D20000800000000FD
:104E400074732D726573657400000000000000002B
:104E5000000000005920000800000000757074690F
:104E60006D65000000000000000000000000000070
:104E700065200008000000000000000000000000A5
:104E80000000000000000000000000000000000022
:104E90000000000064000000640000001300000037
:104EA0005A000000D7000000701700006D49414211
:104EB0004344584B4D504A404C6C686E4873757E65
:104EC00000000000D1260008D1260008592900085A
:104ED00091270008892800083D280008D1260008ED
:104EE000D1260008D1260008D1260008D1260008C6
:104EF000D1260008D1260008D1260008D1260008B6
:104F0000D1260008D1260008D1260008D1260008A5
:104F1000F5260008080A0D090000000041270008D6
:104F2000612800080D280008B12800080040404012
:104F3000404040404040414141414140404040406C
:104F40004040404040404040404040404005020218
:104F500002020202020202020202020202202020D7
:104F60002020202020202002020202020202909033
:104F70009090909010101010101010101010101031
:104F80001010101010101010020202020202888885
:104F90008888888808080808080808080808080891
:104FA0000808080808080808020202024000000079
:104FB0002D4F00087365742D6C63642070776D311C
:104FC0002070776D322070776D33203A20636F6EDA
:104FD00066696720746865207370656369666963D4
:104FE000206C6576656C20776974682070776D2019
:104FF00064757479206379636C652E0D0A00000076
:1050000073686F772D636F6E66696720202020209C
:10501000202020202020203A2073686F7720636FA3
:10502000727265637420696E666F726D6174696F08
:105030006E206F66206C63642070616E6E656C2EEE
:105040000D0A00007365742D70776D2070776D20E8
:1050500020202020202020202020203A2075736549
:105060006420746F20636F72726563742070616E68
:105070006E656C20666F72206661746F7279207441
:105080006573742E0D0A000020202020202020208F
:105090002020202020202020202020202020203AF6
:1050A0002070776D28312D332920666F7220302EC5
:1050B0003563642F6D2A6D203263642F6D2A6D2055
:1050C0003563642F6D2A6D0D0A000000300000006A
:1050D00000000000000000000000000000000000D0
:1050E00000000000000000006E0000000000000052
:1050F00000000000000000000000000000000000B0
:10510000000000002451000800000020A002000060
:105110000A0900089C510008A00200206832000023
:105120002C0D000882011244554011072633020657
:105130009D080140040C021908130306540C014099
:10514000194D190E2169100A19022C195DB92C1973
:1051500061326429043213325A32D73B70171C4C27
:10516000400207AA635D1A9A014C4280BF38014091
:105170000E0625C02980790C29CDC12BF36F1A01A9
:10518000391AAA0101200009186363406D63753A5A
:0C519000202B444DF601FF011F00000021
:0400000508000105E9
:00000001FF
